{
  "_format": "hh-sol-artifact-1",
  "contractName": "RealEstate",
  "sourceName": "contracts/RealEstate.sol",
  "abi": [
    {
      "inputs": [],
      "stateMutability": "nonpayable",
      "type": "constructor"
    },
    {
      "inputs": [
        {
          "internalType": "address",
          "name": "sender",
          "type": "address"
        },
        {
          "internalType": "uint256",
          "name": "tokenId",
          "type": "uint256"
        },
        {
          "internalType": "address",
          "name": "owner",
          "type": "address"
        }
      ],
      "name": "ERC721IncorrectOwner",
      "type": "error"
    },
    {
      "inputs": [
        {
          "internalType": "address",
          "name": "operator",
          "type": "address"
        },
        {
          "internalType": "uint256",
          "name": "tokenId",
          "type": "uint256"
        }
      ],
      "name": "ERC721InsufficientApproval",
      "type": "error"
    },
    {
      "inputs": [
        {
          "internalType": "address",
          "name": "approver",
          "type": "address"
        }
      ],
      "name": "ERC721InvalidApprover",
      "type": "error"
    },
    {
      "inputs": [
        {
          "internalType": "address",
          "name": "operator",
          "type": "address"
        }
      ],
      "name": "ERC721InvalidOperator",
      "type": "error"
    },
    {
      "inputs": [
        {
          "internalType": "address",
          "name": "owner",
          "type": "address"
        }
      ],
      "name": "ERC721InvalidOwner",
      "type": "error"
    },
    {
      "inputs": [
        {
          "internalType": "address",
          "name": "receiver",
          "type": "address"
        }
      ],
      "name": "ERC721InvalidReceiver",
      "type": "error"
    },
    {
      "inputs": [
        {
          "internalType": "address",
          "name": "sender",
          "type": "address"
        }
      ],
      "name": "ERC721InvalidSender",
      "type": "error"
    },
    {
      "inputs": [
        {
          "internalType": "uint256",
          "name": "tokenId",
          "type": "uint256"
        }
      ],
      "name": "ERC721NonexistentToken",
      "type": "error"
    },
    {
      "anonymous": false,
      "inputs": [
        {
          "indexed": true,
          "internalType": "address",
          "name": "owner",
          "type": "address"
        },
        {
          "indexed": true,
          "internalType": "address",
          "name": "approved",
          "type": "address"
        },
        {
          "indexed": true,
          "internalType": "uint256",
          "name": "tokenId",
          "type": "uint256"
        }
      ],
      "name": "Approval",
      "type": "event"
    },
    {
      "anonymous": false,
      "inputs": [
        {
          "indexed": true,
          "internalType": "address",
          "name": "owner",
          "type": "address"
        },
        {
          "indexed": true,
          "internalType": "address",
          "name": "operator",
          "type": "address"
        },
        {
          "indexed": false,
          "internalType": "bool",
          "name": "approved",
          "type": "bool"
        }
      ],
      "name": "ApprovalForAll",
      "type": "event"
    },
    {
      "anonymous": false,
      "inputs": [
        {
          "indexed": false,
          "internalType": "uint256",
          "name": "_fromTokenId",
          "type": "uint256"
        },
        {
          "indexed": false,
          "internalType": "uint256",
          "name": "_toTokenId",
          "type": "uint256"
        }
      ],
      "name": "BatchMetadataUpdate",
      "type": "event"
    },
    {
      "anonymous": false,
      "inputs": [
        {
          "indexed": false,
          "internalType": "uint256",
          "name": "_tokenId",
          "type": "uint256"
        }
      ],
      "name": "MetadataUpdate",
      "type": "event"
    },
    {
      "anonymous": false,
      "inputs": [
        {
          "indexed": true,
          "internalType": "address",
          "name": "from",
          "type": "address"
        },
        {
          "indexed": true,
          "internalType": "address",
          "name": "to",
          "type": "address"
        },
        {
          "indexed": true,
          "internalType": "uint256",
          "name": "tokenId",
          "type": "uint256"
        }
      ],
      "name": "Transfer",
      "type": "event"
    },
    {
      "inputs": [
        {
          "internalType": "address",
          "name": "to",
          "type": "address"
        },
        {
          "internalType": "uint256",
          "name": "tokenId",
          "type": "uint256"
        }
      ],
      "name": "approve",
      "outputs": [],
      "stateMutability": "nonpayable",
      "type": "function"
    },
    {
      "inputs": [
        {
          "internalType": "address",
          "name": "owner",
          "type": "address"
        }
      ],
      "name": "balanceOf",
      "outputs": [
        {
          "internalType": "uint256",
          "name": "",
          "type": "uint256"
        }
      ],
      "stateMutability": "view",
      "type": "function"
    },
    {
      "inputs": [
        {
          "internalType": "uint256",
          "name": "tokenId",
          "type": "uint256"
        }
      ],
      "name": "getApproved",
      "outputs": [
        {
          "internalType": "address",
          "name": "",
          "type": "address"
        }
      ],
      "stateMutability": "view",
      "type": "function"
    },
    {
      "inputs": [
        {
          "internalType": "address",
          "name": "owner",
          "type": "address"
        },
        {
          "internalType": "address",
          "name": "operator",
          "type": "address"
        }
      ],
      "name": "isApprovedForAll",
      "outputs": [
        {
          "internalType": "bool",
          "name": "",
          "type": "bool"
        }
      ],
      "stateMutability": "view",
      "type": "function"
    },
    {
      "inputs": [
        {
          "internalType": "string",
          "name": "tokenURI",
          "type": "string"
        }
      ],
      "name": "mint",
      "outputs": [
        {
          "internalType": "uint256",
          "name": "",
          "type": "uint256"
        }
      ],
      "stateMutability": "nonpayable",
      "type": "function"
    },
    {
      "inputs": [],
      "name": "name",
      "outputs": [
        {
          "internalType": "string",
          "name": "",
          "type": "string"
        }
      ],
      "stateMutability": "view",
      "type": "function"
    },
    {
      "inputs": [
        {
          "internalType": "uint256",
          "name": "tokenId",
          "type": "uint256"
        }
      ],
      "name": "ownerOf",
      "outputs": [
        {
          "internalType": "address",
          "name": "",
          "type": "address"
        }
      ],
      "stateMutability": "view",
      "type": "function"
    },
    {
      "inputs": [
        {
          "internalType": "address",
          "name": "from",
          "type": "address"
        },
        {
          "internalType": "address",
          "name": "to",
          "type": "address"
        },
        {
          "internalType": "uint256",
          "name": "tokenId",
          "type": "uint256"
        }
      ],
      "name": "safeTransferFrom",
      "outputs": [],
      "stateMutability": "nonpayable",
      "type": "function"
    },
    {
      "inputs": [
        {
          "internalType": "address",
          "name": "from",
          "type": "address"
        },
        {
          "internalType": "address",
          "name": "to",
          "type": "address"
        },
        {
          "internalType": "uint256",
          "name": "tokenId",
          "type": "uint256"
        },
        {
          "internalType": "bytes",
          "name": "data",
          "type": "bytes"
        }
      ],
      "name": "safeTransferFrom",
      "outputs": [],
      "stateMutability": "nonpayable",
      "type": "function"
    },
    {
      "inputs": [
        {
          "internalType": "address",
          "name": "operator",
          "type": "address"
        },
        {
          "internalType": "bool",
          "name": "approved",
          "type": "bool"
        }
      ],
      "name": "setApprovalForAll",
      "outputs": [],
      "stateMutability": "nonpayable",
      "type": "function"
    },
    {
      "inputs": [
        {
          "internalType": "bytes4",
          "name": "interfaceId",
          "type": "bytes4"
        }
      ],
      "name": "supportsInterface",
      "outputs": [
        {
          "internalType": "bool",
          "name": "",
          "type": "bool"
        }
      ],
      "stateMutability": "view",
      "type": "function"
    },
    {
      "inputs": [],
      "name": "symbol",
      "outputs": [
        {
          "internalType": "string",
          "name": "",
          "type": "string"
        }
      ],
      "stateMutability": "view",
      "type": "function"
    },
    {
      "inputs": [
        {
          "internalType": "uint256",
          "name": "tokenId",
          "type": "uint256"
        }
      ],
      "name": "tokenURI",
      "outputs": [
        {
          "internalType": "string",
          "name": "",
          "type": "string"
        }
      ],
      "stateMutability": "view",
      "type": "function"
    },
    {
      "inputs": [],
      "name": "totalSupply",
      "outputs": [
        {
          "internalType": "uint256",
          "name": "",
          "type": "uint256"
        }
      ],
      "stateMutability": "view",
      "type": "function"
    },
    {
      "inputs": [
        {
          "internalType": "address",
          "name": "from",
          "type": "address"
        },
        {
          "internalType": "address",
          "name": "to",
          "type": "address"
        },
        {
          "internalType": "uint256",
          "name": "tokenId",
          "type": "uint256"
        }
      ],
      "name": "transferFrom",
      "outputs": [],
      "stateMutability": "nonpayable",
      "type": "function"
    }
  ],
  "bytecode": "0x608060405234801561001057600080fd5b506040518060400160405280600a81526020017f5265616c457374617465000000000000000000000000000000000000000000008152506040518060400160405280600481526020017f5245414c00000000000000000000000000000000000000000000000000000000815250816000908161008c91906102f4565b50806001908161009c91906102f4565b5050506103c6565b600081519050919050565b7f4e487b7100000000000000000000000000000000000000000000000000000000600052604160045260246000fd5b7f4e487b7100000000000000000000000000000000000000000000000000000000600052602260045260246000fd5b6000600282049050600182168061012557607f821691505b602082108103610138576101376100de565b5b50919050565b60008190508160005260206000209050919050565b60006020601f8301049050919050565b600082821b905092915050565b6000600883026101a07fffffffffffffffffffffffffffffffffffffffffffffffffffffffffffffffff82610163565b6101aa8683610163565b95508019841693508086168417925050509392505050565b6000819050919050565b6000819050919050565b60006101f16101ec6101e7846101c2565b6101cc565b6101c2565b9050919050565b6000819050919050565b61020b836101d6565b61021f610217826101f8565b848454610170565b825550505050565b600090565b610234610227565b61023f818484610202565b505050565b5b818110156102635761025860008261022c565b600181019050610245565b5050565b601f8211156102a8576102798161013e565b61028284610153565b81016020851015610291578190505b6102a561029d85610153565b830182610244565b50505b505050565b600082821c905092915050565b60006102cb600019846008026102ad565b1980831691505092915050565b60006102e483836102ba565b9150826002028217905092915050565b6102fd826100a4565b67ffffffffffffffff811115610316576103156100af565b5b610320825461010d565b61032b828285610267565b600060209050601f83116001811461035e576000841561034c578287015190505b61035685826102d8565b8655506103be565b601f19841661036c8661013e565b60005b828110156103945784890151825560018201915060208501945060208101905061036f565b868310156103b157848901516103ad601f8916826102ba565b8355505b6001600288020188555050505b505050505050565b6123dd806103d56000396000f3fe608060405234801561001057600080fd5b50600436106100f55760003560e01c80636352211e11610097578063b88d4fde11610066578063b88d4fde14610284578063c87b56dd146102a0578063d85d3d27146102d0578063e985e9c514610300576100f5565b80636352211e146101ea57806370a082311461021a57806395d89b411461024a578063a22cb46514610268576100f5565b8063095ea7b3116100d3578063095ea7b31461017857806318160ddd1461019457806323b872dd146101b257806342842e0e146101ce576100f5565b806301ffc9a7146100fa57806306fdde031461012a578063081812fc14610148575b600080fd5b610114600480360381019061010f9190611848565b610330565b6040516101219190611890565b60405180910390f35b610132610391565b60405161013f919061193b565b60405180910390f35b610162600480360381019061015d9190611993565b610423565b60405161016f9190611a01565b60405180910390f35b610192600480360381019061018d9190611a48565b61043f565b005b61019c610455565b6040516101a99190611a97565b60405180910390f35b6101cc60048036038101906101c79190611ab2565b61045f565b005b6101e860048036038101906101e39190611ab2565b610561565b005b61020460048036038101906101ff9190611993565b610581565b6040516102119190611a01565b60405180910390f35b610234600480360381019061022f9190611b05565b610593565b6040516102419190611a97565b60405180910390f35b61025261064d565b60405161025f919061193b565b60405180910390f35b610282600480360381019061027d9190611b5e565b6106df565b005b61029e60048036038101906102999190611cd3565b6106f5565b005b6102ba60048036038101906102b59190611993565b61071a565b6040516102c7919061193b565b60405180910390f35b6102ea60048036038101906102e59190611df7565b61082d565b6040516102f79190611a97565b60405180910390f35b61031a60048036038101906103159190611e40565b610866565b6040516103279190611890565b60405180910390f35b6000634906490660e01b7bffffffffffffffffffffffffffffffffffffffffffffffffffffffff1916827bffffffffffffffffffffffffffffffffffffffffffffffffffffffff1916148061038a5750610389826108fa565b5b9050919050565b6060600080546103a090611eaf565b80601f01602080910402602001604051908101604052809291908181526020018280546103cc90611eaf565b80156104195780601f106103ee57610100808354040283529160200191610419565b820191906000526020600020905b8154815290600101906020018083116103fc57829003601f168201915b5050505050905090565b600061042e826109dc565b5061043882610a64565b9050919050565b610451828261044c610aa1565b610aa9565b5050565b6000600754905090565b600073ffffffffffffffffffffffffffffffffffffffff168273ffffffffffffffffffffffffffffffffffffffff16036104d15760006040517f64a0ae920000000000000000000000000000000000000000000000000000000081526004016104c89190611a01565b60405180910390fd5b60006104e583836104e0610aa1565b610abb565b90508373ffffffffffffffffffffffffffffffffffffffff168173ffffffffffffffffffffffffffffffffffffffff161461055b578382826040517f64283d7b00000000000000000000000000000000000000000000000000000000815260040161055293929190611ee0565b60405180910390fd5b50505050565b61057c838383604051806020016040528060008152506106f5565b505050565b600061058c826109dc565b9050919050565b60008073ffffffffffffffffffffffffffffffffffffffff168273ffffffffffffffffffffffffffffffffffffffff16036106065760006040517f89c62b640000000000000000000000000000000000000000000000000000000081526004016105fd9190611a01565b60405180910390fd5b600360008373ffffffffffffffffffffffffffffffffffffffff1673ffffffffffffffffffffffffffffffffffffffff168152602001908152602001600020549050919050565b60606001805461065c90611eaf565b80601f016020809104026020016040519081016040528092919081815260200182805461068890611eaf565b80156106d55780601f106106aa576101008083540402835291602001916106d5565b820191906000526020600020905b8154815290600101906020018083116106b857829003601f168201915b5050505050905090565b6106f16106ea610aa1565b8383610cd5565b5050565b61070084848461045f565b61071461070b610aa1565b85858585610e44565b50505050565b6060610725826109dc565b50600060066000848152602001908152602001600020805461074690611eaf565b80601f016020809104026020016040519081016040528092919081815260200182805461077290611eaf565b80156107bf5780601f10610794576101008083540402835291602001916107bf565b820191906000526020600020905b8154815290600101906020018083116107a257829003601f168201915b5050505050905060006107d0610ff5565b905060008151036107e5578192505050610828565b60008251111561081a578082604051602001610802929190611f53565b60405160208183030381529060405292505050610828565b6108238461100c565b925050505b919050565b6000806007600081548092919061084390611fa6565b9190505590506108533382611075565b61085d818461116e565b80915050919050565b6000600560008473ffffffffffffffffffffffffffffffffffffffff1673ffffffffffffffffffffffffffffffffffffffff16815260200190815260200160002060008373ffffffffffffffffffffffffffffffffffffffff1673ffffffffffffffffffffffffffffffffffffffff16815260200190815260200160002060009054906101000a900460ff16905092915050565b60007f80ac58cd000000000000000000000000000000000000000000000000000000007bffffffffffffffffffffffffffffffffffffffffffffffffffffffff1916827bffffffffffffffffffffffffffffffffffffffffffffffffffffffff191614806109c557507f5b5e139f000000000000000000000000000000000000000000000000000000007bffffffffffffffffffffffffffffffffffffffffffffffffffffffff1916827bffffffffffffffffffffffffffffffffffffffffffffffffffffffff1916145b806109d557506109d4826111ca565b5b9050919050565b6000806109e883611234565b9050600073ffffffffffffffffffffffffffffffffffffffff168173ffffffffffffffffffffffffffffffffffffffff1603610a5b57826040517f7e273289000000000000000000000000000000000000000000000000000000008152600401610a529190611a97565b60405180910390fd5b80915050919050565b60006004600083815260200190815260200160002060009054906101000a900473ffffffffffffffffffffffffffffffffffffffff169050919050565b600033905090565b610ab68383836001611271565b505050565b600080610ac784611234565b9050600073ffffffffffffffffffffffffffffffffffffffff168373ffffffffffffffffffffffffffffffffffffffff1614610b0957610b08818486611436565b5b600073ffffffffffffffffffffffffffffffffffffffff168173ffffffffffffffffffffffffffffffffffffffff1614610b9a57610b4b600085600080611271565b6001600360008373ffffffffffffffffffffffffffffffffffffffff1673ffffffffffffffffffffffffffffffffffffffff168152602001908152602001600020600082825403925050819055505b600073ffffffffffffffffffffffffffffffffffffffff168573ffffffffffffffffffffffffffffffffffffffff1614610c1d576001600360008773ffffffffffffffffffffffffffffffffffffffff1673ffffffffffffffffffffffffffffffffffffffff168152602001908152602001600020600082825401925050819055505b846002600086815260200190815260200160002060006101000a81548173ffffffffffffffffffffffffffffffffffffffff021916908373ffffffffffffffffffffffffffffffffffffffff160217905550838573ffffffffffffffffffffffffffffffffffffffff168273ffffffffffffffffffffffffffffffffffffffff167fddf252ad1be2c89b69c2b068fc378daa952ba7f163c4a11628f55a4df523b3ef60405160405180910390a4809150509392505050565b600073ffffffffffffffffffffffffffffffffffffffff168273ffffffffffffffffffffffffffffffffffffffff1603610d4657816040517f5b08ba18000000000000000000000000000000000000000000000000000000008152600401610d3d9190611a01565b60405180910390fd5b80600560008573ffffffffffffffffffffffffffffffffffffffff1673ffffffffffffffffffffffffffffffffffffffff16815260200190815260200160002060008473ffffffffffffffffffffffffffffffffffffffff1673ffffffffffffffffffffffffffffffffffffffff16815260200190815260200160002060006101000a81548160ff0219169083151502179055508173ffffffffffffffffffffffffffffffffffffffff168373ffffffffffffffffffffffffffffffffffffffff167f17307eab39ab6107e8899845ad3d59bd9653f200f220920489ca2b5937696c3183604051610e379190611890565b60405180910390a3505050565b60008373ffffffffffffffffffffffffffffffffffffffff163b1115610fee578273ffffffffffffffffffffffffffffffffffffffff1663150b7a02868685856040518563ffffffff1660e01b8152600401610ea39493929190612043565b6020604051808303816000875af1925050508015610edf57506040513d601f19601f82011682018060405250810190610edc91906120a4565b60015b610f63573d8060008114610f0f576040519150601f19603f3d011682016040523d82523d6000602084013e610f14565b606091505b506000815103610f5b57836040517f64a0ae92000000000000000000000000000000000000000000000000000000008152600401610f529190611a01565b60405180910390fd5b805160208201fd5b63150b7a0260e01b7bffffffffffffffffffffffffffffffffffffffffffffffffffffffff1916817bffffffffffffffffffffffffffffffffffffffffffffffffffffffff191614610fec57836040517f64a0ae92000000000000000000000000000000000000000000000000000000008152600401610fe39190611a01565b60405180910390fd5b505b5050505050565b606060405180602001604052806000815250905090565b6060611017826109dc565b506000611022610ff5565b90506000815111611042576040518060200160405280600081525061106d565b8061104c846114fa565b60405160200161105d929190611f53565b6040516020818303038152906040525b915050919050565b600073ffffffffffffffffffffffffffffffffffffffff168273ffffffffffffffffffffffffffffffffffffffff16036110e75760006040517f64a0ae920000000000000000000000000000000000000000000000000000000081526004016110de9190611a01565b60405180910390fd5b60006110f583836000610abb565b9050600073ffffffffffffffffffffffffffffffffffffffff168173ffffffffffffffffffffffffffffffffffffffff16146111695760006040517f73c6ac6e0000000000000000000000000000000000000000000000000000000081526004016111609190611a01565b60405180910390fd5b505050565b8060066000848152602001908152602001600020908161118e919061227d565b507ff8e1a15aba9398e019f0b49df1a4fde98ee17ae345cb5f6b5e2c27f5033e8ce7826040516111be9190611a97565b60405180910390a15050565b60007f01ffc9a7000000000000000000000000000000000000000000000000000000007bffffffffffffffffffffffffffffffffffffffffffffffffffffffff1916827bffffffffffffffffffffffffffffffffffffffffffffffffffffffff1916149050919050565b60006002600083815260200190815260200160002060009054906101000a900473ffffffffffffffffffffffffffffffffffffffff169050919050565b80806112aa5750600073ffffffffffffffffffffffffffffffffffffffff168273ffffffffffffffffffffffffffffffffffffffff1614155b156113de5760006112ba846109dc565b9050600073ffffffffffffffffffffffffffffffffffffffff168373ffffffffffffffffffffffffffffffffffffffff161415801561132557508273ffffffffffffffffffffffffffffffffffffffff168173ffffffffffffffffffffffffffffffffffffffff1614155b801561133857506113368184610866565b155b1561137a57826040517fa9fbf51f0000000000000000000000000000000000000000000000000000000081526004016113719190611a01565b60405180910390fd5b81156113dc57838573ffffffffffffffffffffffffffffffffffffffff168273ffffffffffffffffffffffffffffffffffffffff167f8c5be1e5ebec7d5bd14f71427d1e84f3dd0314c0f7b2291e5b200ac8c7c3b92560405160405180910390a45b505b836004600085815260200190815260200160002060006101000a81548173ffffffffffffffffffffffffffffffffffffffff021916908373ffffffffffffffffffffffffffffffffffffffff16021790555050505050565b6114418383836115c8565b6114f557600073ffffffffffffffffffffffffffffffffffffffff168373ffffffffffffffffffffffffffffffffffffffff16036114b657806040517f7e2732890000000000000000000000000000000000000000000000000000000081526004016114ad9190611a97565b60405180910390fd5b81816040517f177e802f0000000000000000000000000000000000000000000000000000000081526004016114ec92919061234f565b60405180910390fd5b505050565b60606000600161150984611689565b01905060008167ffffffffffffffff81111561152857611527611ba8565b5b6040519080825280601f01601f19166020018201604052801561155a5781602001600182028036833780820191505090505b509050600082602083010190505b6001156115bd578080600190039150507f3031323334353637383961626364656600000000000000000000000000000000600a86061a8153600a85816115b1576115b0612378565b5b04945060008503611568575b819350505050919050565b60008073ffffffffffffffffffffffffffffffffffffffff168373ffffffffffffffffffffffffffffffffffffffff161415801561168057508273ffffffffffffffffffffffffffffffffffffffff168473ffffffffffffffffffffffffffffffffffffffff16148061164157506116408484610866565b5b8061167f57508273ffffffffffffffffffffffffffffffffffffffff1661166783610a64565b73ffffffffffffffffffffffffffffffffffffffff16145b5b90509392505050565b600080600090507a184f03e93ff9f4daa797ed6e38ed64bf6a1f01000000000000000083106116e7577a184f03e93ff9f4daa797ed6e38ed64bf6a1f01000000000000000083816116dd576116dc612378565b5b0492506040810190505b6d04ee2d6d415b85acef81000000008310611724576d04ee2d6d415b85acef8100000000838161171a57611719612378565b5b0492506020810190505b662386f26fc10000831061175357662386f26fc10000838161174957611748612378565b5b0492506010810190505b6305f5e100831061177c576305f5e100838161177257611771612378565b5b0492506008810190505b61271083106117a157612710838161179757611796612378565b5b0492506004810190505b606483106117c457606483816117ba576117b9612378565b5b0492506002810190505b600a83106117d3576001810190505b80915050919050565b6000604051905090565b600080fd5b600080fd5b60007fffffffff0000000000000000000000000000000000000000000000000000000082169050919050565b611825816117f0565b811461183057600080fd5b50565b6000813590506118428161181c565b92915050565b60006020828403121561185e5761185d6117e6565b5b600061186c84828501611833565b91505092915050565b60008115159050919050565b61188a81611875565b82525050565b60006020820190506118a56000830184611881565b92915050565b600081519050919050565b600082825260208201905092915050565b60005b838110156118e55780820151818401526020810190506118ca565b60008484015250505050565b6000601f19601f8301169050919050565b600061190d826118ab565b61191781856118b6565b93506119278185602086016118c7565b611930816118f1565b840191505092915050565b600060208201905081810360008301526119558184611902565b905092915050565b6000819050919050565b6119708161195d565b811461197b57600080fd5b50565b60008135905061198d81611967565b92915050565b6000602082840312156119a9576119a86117e6565b5b60006119b78482850161197e565b91505092915050565b600073ffffffffffffffffffffffffffffffffffffffff82169050919050565b60006119eb826119c0565b9050919050565b6119fb816119e0565b82525050565b6000602082019050611a1660008301846119f2565b92915050565b611a25816119e0565b8114611a3057600080fd5b50565b600081359050611a4281611a1c565b92915050565b60008060408385031215611a5f57611a5e6117e6565b5b6000611a6d85828601611a33565b9250506020611a7e8582860161197e565b9150509250929050565b611a918161195d565b82525050565b6000602082019050611aac6000830184611a88565b92915050565b600080600060608486031215611acb57611aca6117e6565b5b6000611ad986828701611a33565b9350506020611aea86828701611a33565b9250506040611afb8682870161197e565b9150509250925092565b600060208284031215611b1b57611b1a6117e6565b5b6000611b2984828501611a33565b91505092915050565b611b3b81611875565b8114611b4657600080fd5b50565b600081359050611b5881611b32565b92915050565b60008060408385031215611b7557611b746117e6565b5b6000611b8385828601611a33565b9250506020611b9485828601611b49565b9150509250929050565b600080fd5b600080fd5b7f4e487b7100000000000000000000000000000000000000000000000000000000600052604160045260246000fd5b611be0826118f1565b810181811067ffffffffffffffff82111715611bff57611bfe611ba8565b5b80604052505050565b6000611c126117dc565b9050611c1e8282611bd7565b919050565b600067ffffffffffffffff821115611c3e57611c3d611ba8565b5b611c47826118f1565b9050602081019050919050565b82818337600083830152505050565b6000611c76611c7184611c23565b611c08565b905082815260208101848484011115611c9257611c91611ba3565b5b611c9d848285611c54565b509392505050565b600082601f830112611cba57611cb9611b9e565b5b8135611cca848260208601611c63565b91505092915050565b60008060008060808587031215611ced57611cec6117e6565b5b6000611cfb87828801611a33565b9450506020611d0c87828801611a33565b9350506040611d1d8782880161197e565b925050606085013567ffffffffffffffff811115611d3e57611d3d6117eb565b5b611d4a87828801611ca5565b91505092959194509250565b600067ffffffffffffffff821115611d7157611d70611ba8565b5b611d7a826118f1565b9050602081019050919050565b6000611d9a611d9584611d56565b611c08565b905082815260208101848484011115611db657611db5611ba3565b5b611dc1848285611c54565b509392505050565b600082601f830112611dde57611ddd611b9e565b5b8135611dee848260208601611d87565b91505092915050565b600060208284031215611e0d57611e0c6117e6565b5b600082013567ffffffffffffffff811115611e2b57611e2a6117eb565b5b611e3784828501611dc9565b91505092915050565b60008060408385031215611e5757611e566117e6565b5b6000611e6585828601611a33565b9250506020611e7685828601611a33565b9150509250929050565b7f4e487b7100000000000000000000000000000000000000000000000000000000600052602260045260246000fd5b60006002820490506001821680611ec757607f821691505b602082108103611eda57611ed9611e80565b5b50919050565b6000606082019050611ef560008301866119f2565b611f026020830185611a88565b611f0f60408301846119f2565b949350505050565b600081905092915050565b6000611f2d826118ab565b611f378185611f17565b9350611f478185602086016118c7565b80840191505092915050565b6000611f5f8285611f22565b9150611f6b8284611f22565b91508190509392505050565b7f4e487b7100000000000000000000000000000000000000000000000000000000600052601160045260246000fd5b6000611fb18261195d565b91507fffffffffffffffffffffffffffffffffffffffffffffffffffffffffffffffff8203611fe357611fe2611f77565b5b600182019050919050565b600081519050919050565b600082825260208201905092915050565b600061201582611fee565b61201f8185611ff9565b935061202f8185602086016118c7565b612038816118f1565b840191505092915050565b600060808201905061205860008301876119f2565b61206560208301866119f2565b6120726040830185611a88565b8181036060830152612084818461200a565b905095945050505050565b60008151905061209e8161181c565b92915050565b6000602082840312156120ba576120b96117e6565b5b60006120c88482850161208f565b91505092915050565b60008190508160005260206000209050919050565b60006020601f8301049050919050565b600082821b905092915050565b6000600883026121337fffffffffffffffffffffffffffffffffffffffffffffffffffffffffffffffff826120f6565b61213d86836120f6565b95508019841693508086168417925050509392505050565b6000819050919050565b600061217a6121756121708461195d565b612155565b61195d565b9050919050565b6000819050919050565b6121948361215f565b6121a86121a082612181565b848454612103565b825550505050565b600090565b6121bd6121b0565b6121c881848461218b565b505050565b5b818110156121ec576121e16000826121b5565b6001810190506121ce565b5050565b601f82111561223157612202816120d1565b61220b846120e6565b8101602085101561221a578190505b61222e612226856120e6565b8301826121cd565b50505b505050565b600082821c905092915050565b600061225460001984600802612236565b1980831691505092915050565b600061226d8383612243565b9150826002028217905092915050565b612286826118ab565b67ffffffffffffffff81111561229f5761229e611ba8565b5b6122a98254611eaf565b6122b48282856121f0565b600060209050601f8311600181146122e757600084156122d5578287015190505b6122df8582612261565b865550612347565b601f1984166122f5866120d1565b60005b8281101561231d578489015182556001820191506020850194506020810190506122f8565b8683101561233a5784890151612336601f891682612243565b8355505b6001600288020188555050505b505050505050565b600060408201905061236460008301856119f2565b6123716020830184611a88565b9392505050565b7f4e487b7100000000000000000000000000000000000000000000000000000000600052601260045260246000fdfea26469706673582212200414873edcde8c51906d98d7a3e48d0141c8928d359b0a811e33f9ce2ed1602c64736f6c634300081c0033",
  "linkReferences": {},
  "deployedLinkReferences": {}
}