{
  "_format": "hh-sol-artifact-1",
  "contractName": "Escrow",
  "sourceName": "contracts/Escrow.sol",
  "abi": [
    {
      "inputs": [
        {
          "internalType": "address",
          "name": "_nftAddress",
          "type": "address"
        },
        {
          "internalType": "address payable",
          "name": "_seller",
          "type": "address"
        },
        {
          "internalType": "address",
          "name": "_inspector",
          "type": "address"
        },
        {
          "internalType": "address",
          "name": "_lender",
          "type": "address"
        }
      ],
      "stateMutability": "nonpayable",
      "type": "constructor"
    },
    {
      "anonymous": false,
      "inputs": [
        {
          "indexed": true,
          "internalType": "address",
          "name": "user",
          "type": "address"
        },
        {
          "indexed": false,
          "internalType": "string",
          "name": "username",
          "type": "string"
        },
        {
          "indexed": false,
          "internalType": "string",
          "name": "lastName",
          "type": "string"
        },
        {
          "indexed": false,
          "internalType": "string",
          "name": "email",
          "type": "string"
        }
      ],
      "name": "UserCreated",
      "type": "event"
    },
    {
      "inputs": [
        {
          "internalType": "uint256",
          "name": "",
          "type": "uint256"
        },
        {
          "internalType": "address",
          "name": "",
          "type": "address"
        }
      ],
      "name": "approval",
      "outputs": [
        {
          "internalType": "bool",
          "name": "",
          "type": "bool"
        }
      ],
      "stateMutability": "view",
      "type": "function"
    },
    {
      "inputs": [
        {
          "internalType": "uint256",
          "name": "_nftId",
          "type": "uint256"
        }
      ],
      "name": "approveTransaction",
      "outputs": [],
      "stateMutability": "nonpayable",
      "type": "function"
    },
    {
      "inputs": [
        {
          "internalType": "uint256",
          "name": "",
          "type": "uint256"
        }
      ],
      "name": "buyer",
      "outputs": [
        {
          "internalType": "address",
          "name": "",
          "type": "address"
        }
      ],
      "stateMutability": "view",
      "type": "function"
    },
    {
      "inputs": [
        {
          "internalType": "uint256",
          "name": "_nftId",
          "type": "uint256"
        }
      ],
      "name": "cancelSale",
      "outputs": [],
      "stateMutability": "nonpayable",
      "type": "function"
    },
    {
      "inputs": [
        {
          "internalType": "string",
          "name": "_username",
          "type": "string"
        },
        {
          "internalType": "string",
          "name": "_lastName",
          "type": "string"
        },
        {
          "internalType": "string",
          "name": "_email",
          "type": "string"
        }
      ],
      "name": "createAccount",
      "outputs": [],
      "stateMutability": "nonpayable",
      "type": "function"
    },
    {
      "inputs": [
        {
          "internalType": "uint256",
          "name": "_nftId",
          "type": "uint256"
        }
      ],
      "name": "depositEarnest",
      "outputs": [],
      "stateMutability": "payable",
      "type": "function"
    },
    {
      "inputs": [
        {
          "internalType": "uint256",
          "name": "",
          "type": "uint256"
        }
      ],
      "name": "escrowAmount",
      "outputs": [
        {
          "internalType": "uint256",
          "name": "",
          "type": "uint256"
        }
      ],
      "stateMutability": "view",
      "type": "function"
    },
    {
      "inputs": [
        {
          "internalType": "uint256",
          "name": "_nftId",
          "type": "uint256"
        }
      ],
      "name": "finalizeSale",
      "outputs": [],
      "stateMutability": "nonpayable",
      "type": "function"
    },
    {
      "inputs": [],
      "name": "getBalance",
      "outputs": [
        {
          "internalType": "uint256",
          "name": "",
          "type": "uint256"
        }
      ],
      "stateMutability": "view",
      "type": "function"
    },
    {
      "inputs": [
        {
          "internalType": "address",
          "name": "_user",
          "type": "address"
        }
      ],
      "name": "getUserEmail",
      "outputs": [
        {
          "internalType": "string",
          "name": "",
          "type": "string"
        }
      ],
      "stateMutability": "view",
      "type": "function"
    },
    {
      "inputs": [
        {
          "internalType": "address",
          "name": "_user",
          "type": "address"
        }
      ],
      "name": "getUserInfo",
      "outputs": [
        {
          "internalType": "string",
          "name": "",
          "type": "string"
        },
        {
          "internalType": "string",
          "name": "",
          "type": "string"
        },
        {
          "internalType": "string",
          "name": "",
          "type": "string"
        }
      ],
      "stateMutability": "view",
      "type": "function"
    },
    {
      "inputs": [
        {
          "internalType": "address",
          "name": "_user",
          "type": "address"
        }
      ],
      "name": "getUserLastName",
      "outputs": [
        {
          "internalType": "string",
          "name": "",
          "type": "string"
        }
      ],
      "stateMutability": "view",
      "type": "function"
    },
    {
      "inputs": [
        {
          "internalType": "address",
          "name": "_user",
          "type": "address"
        }
      ],
      "name": "getUserName",
      "outputs": [
        {
          "internalType": "string",
          "name": "",
          "type": "string"
        }
      ],
      "stateMutability": "view",
      "type": "function"
    },
    {
      "inputs": [
        {
          "internalType": "uint256",
          "name": "",
          "type": "uint256"
        }
      ],
      "name": "inspectionIsPassed",
      "outputs": [
        {
          "internalType": "bool",
          "name": "",
          "type": "bool"
        }
      ],
      "stateMutability": "view",
      "type": "function"
    },
    {
      "inputs": [],
      "name": "inspector",
      "outputs": [
        {
          "internalType": "address",
          "name": "",
          "type": "address"
        }
      ],
      "stateMutability": "view",
      "type": "function"
    },
    {
      "inputs": [
        {
          "internalType": "uint256",
          "name": "",
          "type": "uint256"
        }
      ],
      "name": "isListed",
      "outputs": [
        {
          "internalType": "bool",
          "name": "",
          "type": "bool"
        }
      ],
      "stateMutability": "view",
      "type": "function"
    },
    {
      "inputs": [],
      "name": "lender",
      "outputs": [
        {
          "internalType": "address",
          "name": "",
          "type": "address"
        }
      ],
      "stateMutability": "view",
      "type": "function"
    },
    {
      "inputs": [
        {
          "internalType": "uint256",
          "name": "_nftId",
          "type": "uint256"
        },
        {
          "internalType": "address",
          "name": "_buyer",
          "type": "address"
        },
        {
          "internalType": "uint256",
          "name": "_purchasePrice",
          "type": "uint256"
        },
        {
          "internalType": "uint256",
          "name": "_escrowAmount",
          "type": "uint256"
        }
      ],
      "name": "list",
      "outputs": [],
      "stateMutability": "payable",
      "type": "function"
    },
    {
      "inputs": [],
      "name": "nftAddress",
      "outputs": [
        {
          "internalType": "address",
          "name": "",
          "type": "address"
        }
      ],
      "stateMutability": "view",
      "type": "function"
    },
    {
      "inputs": [
        {
          "internalType": "uint256",
          "name": "",
          "type": "uint256"
        }
      ],
      "name": "purchasePrice",
      "outputs": [
        {
          "internalType": "uint256",
          "name": "",
          "type": "uint256"
        }
      ],
      "stateMutability": "view",
      "type": "function"
    },
    {
      "inputs": [],
      "name": "seller",
      "outputs": [
        {
          "internalType": "address payable",
          "name": "",
          "type": "address"
        }
      ],
      "stateMutability": "view",
      "type": "function"
    },
    {
      "inputs": [
        {
          "internalType": "uint256",
          "name": "_nftId",
          "type": "uint256"
        },
        {
          "internalType": "bool",
          "name": "_passed",
          "type": "bool"
        }
      ],
      "name": "updateInspectionStatus",
      "outputs": [],
      "stateMutability": "nonpayable",
      "type": "function"
    },
    {
      "inputs": [
        {
          "internalType": "address",
          "name": "_user",
          "type": "address"
        }
      ],
      "name": "userExists",
      "outputs": [
        {
          "internalType": "bool",
          "name": "",
          "type": "bool"
        }
      ],
      "stateMutability": "view",
      "type": "function"
    },
    {
      "stateMutability": "payable",
      "type": "receive"
    }
  ],
  "bytecode": "0x608060405234801561001057600080fd5b50604051613518380380613518833981810160405281019061003291906101df565b836000806101000a81548173ffffffffffffffffffffffffffffffffffffffff021916908373ffffffffffffffffffffffffffffffffffffffff16021790555082600160006101000a81548173ffffffffffffffffffffffffffffffffffffffff021916908373ffffffffffffffffffffffffffffffffffffffff16021790555081600260006101000a81548173ffffffffffffffffffffffffffffffffffffffff021916908373ffffffffffffffffffffffffffffffffffffffff16021790555080600360006101000a81548173ffffffffffffffffffffffffffffffffffffffff021916908373ffffffffffffffffffffffffffffffffffffffff16021790555050505050610246565b600080fd5b600073ffffffffffffffffffffffffffffffffffffffff82169050919050565b600061016e82610143565b9050919050565b61017e81610163565b811461018957600080fd5b50565b60008151905061019b81610175565b92915050565b60006101ac82610143565b9050919050565b6101bc816101a1565b81146101c757600080fd5b50565b6000815190506101d9816101b3565b92915050565b600080600080608085870312156101f9576101f861013e565b5b60006102078782880161018c565b9450506020610218878288016101ca565b93505060406102298782880161018c565b925050606061023a8782880161018c565b91505092959194509250565b6132c3806102556000396000f3fe6080604052600436106101445760003560e01c80639d0e5fd6116100b6578063bd94b0051161006f578063bd94b005146104c7578063c9f0ec7e146104f0578063d84f55ee1461050c578063e740f77014610549578063ed2cee9e14610565578063fcce4883146105905761014b565b80639d0e5fd6146103a7578063a59ec05c146103d0578063aa9293801461040d578063b848de3514610436578063bc53c0c414610473578063bcead63e1461049c5761014b565b80634dd4acaf116101085780634dd4acaf146102495780635bf8633a146102865780635d19e56c146102b15780636386c1c7146102ee57806377fbc4ae1461032d5780639480e9481461036a5761014b565b806308551a53146101505780630e666e491461017b57806312065fe0146101b8578063242232d1146101e357806326a34c591461020c5761014b565b3661014b57005b600080fd5b34801561015c57600080fd5b506101656105cd565b6040516101729190612037565b60405180910390f35b34801561018757600080fd5b506101a2600480360381019061019d919061209a565b6105f3565b6040516101af91906120e2565b60405180910390f35b3480156101c457600080fd5b506101cd61064d565b6040516101da9190612116565b60405180910390f35b3480156101ef57600080fd5b5061020a6004803603810190610205919061215d565b610655565b005b34801561021857600080fd5b50610233600480360381019061022e919061209a565b6106c1565b604051610240919061221a565b60405180910390f35b34801561025557600080fd5b50610270600480360381019061026b919061215d565b6107dd565b60405161027d919061224b565b60405180910390f35b34801561029257600080fd5b5061029b610810565b6040516102a8919061224b565b60405180910390f35b3480156102bd57600080fd5b506102d860048036038101906102d3919061215d565b610834565b6040516102e59190612116565b60405180910390f35b3480156102fa57600080fd5b506103156004803603810190610310919061209a565b61084c565b60405161032493929190612266565b60405180910390f35b34801561033957600080fd5b50610354600480360381019061034f919061215d565b610b10565b6040516103619190612116565b60405180910390f35b34801561037657600080fd5b50610391600480360381019061038c919061209a565b610b28565b60405161039e919061221a565b60405180910390f35b3480156103b357600080fd5b506103ce60048036038101906103c991906122de565b610c44565b005b3480156103dc57600080fd5b506103f760048036038101906103f2919061215d565b610d03565b60405161040491906120e2565b60405180910390f35b34801561041957600080fd5b50610434600480360381019061042f919061215d565b610d23565b005b34801561044257600080fd5b5061045d6004803603810190610458919061231e565b6111e7565b60405161046a91906120e2565b60405180910390f35b34801561047f57600080fd5b5061049a600480360381019061049591906123c3565b611216565b005b3480156104a857600080fd5b506104b1611640565b6040516104be919061224b565b60405180910390f35b3480156104d357600080fd5b506104ee60048036038101906104e9919061215d565b611666565b005b61050a60048036038101906105059190612477565b611bc5565b005b34801561051857600080fd5b50610533600480360381019061052e919061209a565b611d98565b604051610540919061221a565b60405180910390f35b610563600480360381019061055e919061215d565b611eb4565b005b34801561057157600080fd5b5061057a611fb0565b604051610587919061224b565b60405180910390f35b34801561059c57600080fd5b506105b760048036038101906105b2919061215d565b611fd6565b6040516105c491906120e2565b60405180910390f35b600160009054906101000a900473ffffffffffffffffffffffffffffffffffffffff1681565b600080600560008473ffffffffffffffffffffffffffffffffffffffff1673ffffffffffffffffffffffffffffffffffffffff16815260200190815260200160002060000180546106439061250d565b9050119050919050565b600047905090565b6001600b600083815260200190815260200160002060003373ffffffffffffffffffffffffffffffffffffffff1673ffffffffffffffffffffffffffffffffffffffff16815260200190815260200160002060006101000a81548160ff02191690831515021790555050565b60606106cc826105f3565b61070b576040517f08c379a00000000000000000000000000000000000000000000000000000000081526004016107029061258a565b60405180910390fd5b600560008373ffffffffffffffffffffffffffffffffffffffff1673ffffffffffffffffffffffffffffffffffffffff16815260200190815260200160002060010180546107589061250d565b80601f01602080910402602001604051908101604052809291908181526020018280546107849061250d565b80156107d15780601f106107a6576101008083540402835291602001916107d1565b820191906000526020600020905b8154815290600101906020018083116107b457829003601f168201915b50505050509050919050565b60096020528060005260406000206000915054906101000a900473ffffffffffffffffffffffffffffffffffffffff1681565b60008054906101000a900473ffffffffffffffffffffffffffffffffffffffff1681565b60086020528060005260406000206000915090505481565b606080606061085a846105f3565b610899576040517f08c379a00000000000000000000000000000000000000000000000000000000081526004016108909061258a565b60405180910390fd5b600560008573ffffffffffffffffffffffffffffffffffffffff1673ffffffffffffffffffffffffffffffffffffffff168152602001908152602001600020600001600560008673ffffffffffffffffffffffffffffffffffffffff1673ffffffffffffffffffffffffffffffffffffffff168152602001908152602001600020600101600560008773ffffffffffffffffffffffffffffffffffffffff1673ffffffffffffffffffffffffffffffffffffffff16815260200190815260200160002060020182805461096b9061250d565b80601f01602080910402602001604051908101604052809291908181526020018280546109979061250d565b80156109e45780601f106109b9576101008083540402835291602001916109e4565b820191906000526020600020905b8154815290600101906020018083116109c757829003601f168201915b505050505092508180546109f79061250d565b80601f0160208091040260200160405190810160405280929190818152602001828054610a239061250d565b8015610a705780601f10610a4557610100808354040283529160200191610a70565b820191906000526020600020905b815481529060010190602001808311610a5357829003601f168201915b50505050509150808054610a839061250d565b80601f0160208091040260200160405190810160405280929190818152602001828054610aaf9061250d565b8015610afc5780601f10610ad157610100808354040283529160200191610afc565b820191906000526020600020905b815481529060010190602001808311610adf57829003601f168201915b505050505090509250925092509193909250565b60076020528060005260406000206000915090505481565b6060610b33826105f3565b610b72576040517f08c379a0000000000000000000000000000000000000000000000000000000008152600401610b699061258a565b60405180910390fd5b600560008373ffffffffffffffffffffffffffffffffffffffff1673ffffffffffffffffffffffffffffffffffffffff1681526020019081526020016000206002018054610bbf9061250d565b80601f0160208091040260200160405190810160405280929190818152602001828054610beb9061250d565b8015610c385780601f10610c0d57610100808354040283529160200191610c38565b820191906000526020600020905b815481529060010190602001808311610c1b57829003601f168201915b50505050509050919050565b600260009054906101000a900473ffffffffffffffffffffffffffffffffffffffff1673ffffffffffffffffffffffffffffffffffffffff163373ffffffffffffffffffffffffffffffffffffffff1614610cd4576040517f08c379a0000000000000000000000000000000000000000000000000000000008152600401610ccb9061261c565b60405180910390fd5b80600a600084815260200190815260200160002060006101000a81548160ff0219169083151502179055505050565b600a6020528060005260406000206000915054906101000a900460ff1681565b600a600082815260200190815260200160002060009054906101000a900460ff16610d83576040517f08c379a0000000000000000000000000000000000000000000000000000000008152600401610d7a90612688565b60405180910390fd5b600b600082815260200190815260200160002060006009600084815260200190815260200160002060009054906101000a900473ffffffffffffffffffffffffffffffffffffffff1673ffffffffffffffffffffffffffffffffffffffff1673ffffffffffffffffffffffffffffffffffffffff16815260200190815260200160002060009054906101000a900460ff16610e53576040517f08c379a0000000000000000000000000000000000000000000000000000000008152600401610e4a906126f4565b60405180910390fd5b600b60008281526020019081526020016000206000600160009054906101000a900473ffffffffffffffffffffffffffffffffffffffff1673ffffffffffffffffffffffffffffffffffffffff1673ffffffffffffffffffffffffffffffffffffffff16815260200190815260200160002060009054906101000a900460ff16610f12576040517f08c379a0000000000000000000000000000000000000000000000000000000008152600401610f0990612760565b60405180910390fd5b600b60008281526020019081526020016000206000600360009054906101000a900473ffffffffffffffffffffffffffffffffffffffff1673ffffffffffffffffffffffffffffffffffffffff1673ffffffffffffffffffffffffffffffffffffffff16815260200190815260200160002060009054906101000a900460ff16610fd1576040517f08c379a0000000000000000000000000000000000000000000000000000000008152600401610fc8906127cc565b60405180910390fd5b6007600082815260200190815260200160002054471015611027576040517f08c379a000000000000000000000000000000000000000000000000000000000815260040161101e90612838565b60405180910390fd5b60008054906101000a900473ffffffffffffffffffffffffffffffffffffffff1673ffffffffffffffffffffffffffffffffffffffff166323b872dd306009600085815260200190815260200160002060009054906101000a900473ffffffffffffffffffffffffffffffffffffffff16846040518463ffffffff1660e01b81526004016110b793929190612858565b600060405180830381600087803b1580156110d157600080fd5b505af11580156110e5573d6000803e3d6000fd5b505050506000600160009054906101000a900473ffffffffffffffffffffffffffffffffffffffff1673ffffffffffffffffffffffffffffffffffffffff1647604051611131906128c0565b60006040518083038185875af1925050503d806000811461116e576040519150601f19603f3d011682016040523d82523d6000602084013e611173565b606091505b50509050806111b7576040517f08c379a00000000000000000000000000000000000000000000000000000000081526004016111ae90612921565b60405180910390fd5b60006006600084815260200190815260200160002060006101000a81548160ff0219169083151502179055505050565b600b6020528160005260406000206020528060005260406000206000915091509054906101000a900460ff1681565b61121f336105f3565b1561125f576040517f08c379a00000000000000000000000000000000000000000000000000000000081526004016112569061298d565b60405180910390fd5b600086869050116112a5576040517f08c379a000000000000000000000000000000000000000000000000000000000815260040161129c906129f9565b60405180910390fd5b600084849050116112eb576040517f08c379a00000000000000000000000000000000000000000000000000000000081526004016112e290612a65565b60405180910390fd5b60008282905011611331576040517f08c379a000000000000000000000000000000000000000000000000000000000815260040161132890612ad1565b60405180910390fd5b8585600560003373ffffffffffffffffffffffffffffffffffffffff1673ffffffffffffffffffffffffffffffffffffffff1681526020019081526020016000206000019182611382929190612cd7565b508383600560003373ffffffffffffffffffffffffffffffffffffffff1673ffffffffffffffffffffffffffffffffffffffff16815260200190815260200160002060010191826113d4929190612cd7565b508181600560003373ffffffffffffffffffffffffffffffffffffffff1673ffffffffffffffffffffffffffffffffffffffff1681526020019081526020016000206002019182611426929190612cd7565b506004604051806080016040528088888080601f016020809104026020016040519081016040528093929190818152602001838380828437600081840152601f19601f82011690508083019250505050505050815260200186868080601f016020809104026020016040519081016040528093929190818152602001838380828437600081840152601f19601f82011690508083019250505050505050815260200184848080601f016020809104026020016040519081016040528093929190818152602001838380828437600081840152601f19601f8201169050808301925050505050505081526020013373ffffffffffffffffffffffffffffffffffffffff168152509080600181540180825580915050600190039060005260206000209060040201600090919091909150600082015181600001908161156a9190612da7565b5060208201518160010190816115809190612da7565b5060408201518160020190816115969190612da7565b5060608201518160030160006101000a81548173ffffffffffffffffffffffffffffffffffffffff021916908373ffffffffffffffffffffffffffffffffffffffff16021790555050503373ffffffffffffffffffffffffffffffffffffffff167f10316ad8f515a8cfd5ba71ef574e791ff4d70f101f51d8842d128670302b308a87878787878760405161163096959493929190612eb5565b60405180910390a2505050505050565b600360009054906101000a900473ffffffffffffffffffffffffffffffffffffffff1681565b6006600082815260200190815260200160002060009054906101000a900460ff166116c6576040517f08c379a00000000000000000000000000000000000000000000000000000000081526004016116bd90612f53565b60405180910390fd5b600160009054906101000a900473ffffffffffffffffffffffffffffffffffffffff1673ffffffffffffffffffffffffffffffffffffffff163373ffffffffffffffffffffffffffffffffffffffff16148061178057506009600082815260200190815260200160002060009054906101000a900473ffffffffffffffffffffffffffffffffffffffff1673ffffffffffffffffffffffffffffffffffffffff163373ffffffffffffffffffffffffffffffffffffffff16145b6117bf576040517f08c379a00000000000000000000000000000000000000000000000000000000081526004016117b690612fe5565b60405180910390fd5b60006009600083815260200190815260200160002060009054906101000a900473ffffffffffffffffffffffffffffffffffffffff16905060008054906101000a900473ffffffffffffffffffffffffffffffffffffffff1673ffffffffffffffffffffffffffffffffffffffff166323b872dd30600160009054906101000a900473ffffffffffffffffffffffffffffffffffffffff16856040518463ffffffff1660e01b81526004016118769392919061305a565b600060405180830381600087803b15801561189057600080fd5b505af11580156118a4573d6000803e3d6000fd5b50505050600047905060008111156119645760008273ffffffffffffffffffffffffffffffffffffffff16826040516118dc906128c0565b60006040518083038185875af1925050503d8060008114611919576040519150601f19603f3d011682016040523d82523d6000602084013e61191e565b606091505b5050905080611962576040517f08c379a0000000000000000000000000000000000000000000000000000000008152600401611959906130dd565b60405180910390fd5b505b6000600b600085815260200190815260200160002060008473ffffffffffffffffffffffffffffffffffffffff1673ffffffffffffffffffffffffffffffffffffffff16815260200190815260200160002060006101000a81548160ff0219169083151502179055506000600b60008581526020019081526020016000206000600160009054906101000a900473ffffffffffffffffffffffffffffffffffffffff1673ffffffffffffffffffffffffffffffffffffffff1673ffffffffffffffffffffffffffffffffffffffff16815260200190815260200160002060006101000a81548160ff0219169083151502179055506000600b60008581526020019081526020016000206000600360009054906101000a900473ffffffffffffffffffffffffffffffffffffffff1673ffffffffffffffffffffffffffffffffffffffff1673ffffffffffffffffffffffffffffffffffffffff16815260200190815260200160002060006101000a81548160ff02191690831515021790555060006006600085815260200190815260200160002060006101000a81548160ff021916908315150217905550600060076000858152602001908152602001600020819055506000600860008581526020019081526020016000208190555060006009600085815260200190815260200160002060006101000a81548173ffffffffffffffffffffffffffffffffffffffff021916908373ffffffffffffffffffffffffffffffffffffffff1602179055506000600a600085815260200190815260200160002060006101000a81548160ff021916908315150217905550505050565b600160009054906101000a900473ffffffffffffffffffffffffffffffffffffffff1673ffffffffffffffffffffffffffffffffffffffff163373ffffffffffffffffffffffffffffffffffffffff1614611c55576040517f08c379a0000000000000000000000000000000000000000000000000000000008152600401611c4c9061316f565b60405180910390fd5b60008054906101000a900473ffffffffffffffffffffffffffffffffffffffff1673ffffffffffffffffffffffffffffffffffffffff166323b872dd3330876040518463ffffffff1660e01b8152600401611cb293929190612858565b600060405180830381600087803b158015611ccc57600080fd5b505af1158015611ce0573d6000803e3d6000fd5b5050505060016006600086815260200190815260200160002060006101000a81548160ff021916908315150217905550816007600086815260200190815260200160002081905550806008600086815260200190815260200160002081905550826009600086815260200190815260200160002060006101000a81548173ffffffffffffffffffffffffffffffffffffffff021916908373ffffffffffffffffffffffffffffffffffffffff16021790555050505050565b6060611da3826105f3565b611de2576040517f08c379a0000000000000000000000000000000000000000000000000000000008152600401611dd99061258a565b60405180910390fd5b600560008373ffffffffffffffffffffffffffffffffffffffff1673ffffffffffffffffffffffffffffffffffffffff1681526020019081526020016000206000018054611e2f9061250d565b80601f0160208091040260200160405190810160405280929190818152602001828054611e5b9061250d565b8015611ea85780601f10611e7d57610100808354040283529160200191611ea8565b820191906000526020600020905b815481529060010190602001808311611e8b57829003601f168201915b50505050509050919050565b806009600082815260200190815260200160002060009054906101000a900473ffffffffffffffffffffffffffffffffffffffff1673ffffffffffffffffffffffffffffffffffffffff163373ffffffffffffffffffffffffffffffffffffffff1614611f56576040517f08c379a0000000000000000000000000000000000000000000000000000000008152600401611f4d90613201565b60405180910390fd5b6008600083815260200190815260200160002054341015611fac576040517f08c379a0000000000000000000000000000000000000000000000000000000008152600401611fa39061326d565b60405180910390fd5b5050565b600260009054906101000a900473ffffffffffffffffffffffffffffffffffffffff1681565b60066020528060005260406000206000915054906101000a900460ff1681565b600073ffffffffffffffffffffffffffffffffffffffff82169050919050565b600061202182611ff6565b9050919050565b61203181612016565b82525050565b600060208201905061204c6000830184612028565b92915050565b600080fd5b600080fd5b600061206782611ff6565b9050919050565b6120778161205c565b811461208257600080fd5b50565b6000813590506120948161206e565b92915050565b6000602082840312156120b0576120af612052565b5b60006120be84828501612085565b91505092915050565b60008115159050919050565b6120dc816120c7565b82525050565b60006020820190506120f760008301846120d3565b92915050565b6000819050919050565b612110816120fd565b82525050565b600060208201905061212b6000830184612107565b92915050565b61213a816120fd565b811461214557600080fd5b50565b60008135905061215781612131565b92915050565b60006020828403121561217357612172612052565b5b600061218184828501612148565b91505092915050565b600081519050919050565b600082825260208201905092915050565b60005b838110156121c45780820151818401526020810190506121a9565b60008484015250505050565b6000601f19601f8301169050919050565b60006121ec8261218a565b6121f68185612195565b93506122068185602086016121a6565b61220f816121d0565b840191505092915050565b6000602082019050818103600083015261223481846121e1565b905092915050565b6122458161205c565b82525050565b6000602082019050612260600083018461223c565b92915050565b6000606082019050818103600083015261228081866121e1565b9050818103602083015261229481856121e1565b905081810360408301526122a881846121e1565b9050949350505050565b6122bb816120c7565b81146122c657600080fd5b50565b6000813590506122d8816122b2565b92915050565b600080604083850312156122f5576122f4612052565b5b600061230385828601612148565b9250506020612314858286016122c9565b9150509250929050565b6000806040838503121561233557612334612052565b5b600061234385828601612148565b925050602061235485828601612085565b9150509250929050565b600080fd5b600080fd5b600080fd5b60008083601f8401126123835761238261235e565b5b8235905067ffffffffffffffff8111156123a05761239f612363565b5b6020830191508360018202830111156123bc576123bb612368565b5b9250929050565b600080600080600080606087890312156123e0576123df612052565b5b600087013567ffffffffffffffff8111156123fe576123fd612057565b5b61240a89828a0161236d565b9650965050602087013567ffffffffffffffff81111561242d5761242c612057565b5b61243989828a0161236d565b9450945050604087013567ffffffffffffffff81111561245c5761245b612057565b5b61246889828a0161236d565b92509250509295509295509295565b6000806000806080858703121561249157612490612052565b5b600061249f87828801612148565b94505060206124b087828801612085565b93505060406124c187828801612148565b92505060606124d287828801612148565b91505092959194509250565b7f4e487b7100000000000000000000000000000000000000000000000000000000600052602260045260246000fd5b6000600282049050600182168061252557607f821691505b602082108103612538576125376124de565b5b50919050565b7f5573657220646f6573206e6f7420657869737400000000000000000000000000600082015250565b6000612574601383612195565b915061257f8261253e565b602082019050919050565b600060208201905081810360008301526125a381612567565b9050919050565b7f4f6e6c7920696e73706563746f722063616e20706572666f726d20746869732060008201527f616374696f6e0000000000000000000000000000000000000000000000000000602082015250565b6000612606602683612195565b9150612611826125aa565b604082019050919050565b60006020820190508181036000830152612635816125f9565b9050919050565b7f496e7370656374696f6e206e6f74207061737365640000000000000000000000600082015250565b6000612672601583612195565b915061267d8261263c565b602082019050919050565b600060208201905081810360008301526126a181612665565b9050919050565b7f4275796572206e6f7420617070726f7665640000000000000000000000000000600082015250565b60006126de601283612195565b91506126e9826126a8565b602082019050919050565b6000602082019050818103600083015261270d816126d1565b9050919050565b7f53656c6c6572206e6f7420617070726f76656400000000000000000000000000600082015250565b600061274a601383612195565b915061275582612714565b602082019050919050565b600060208201905081810360008301526127798161273d565b9050919050565b7f4c656e646572206e6f7420617070726f76656400000000000000000000000000600082015250565b60006127b6601383612195565b91506127c182612780565b602082019050919050565b600060208201905081810360008301526127e5816127a9565b9050919050565b7f496e73756666696369656e742066756e647320696e20657363726f7700000000600082015250565b6000612822601c83612195565b915061282d826127ec565b602082019050919050565b6000602082019050818103600083015261285181612815565b9050919050565b600060608201905061286d600083018661223c565b61287a602083018561223c565b6128876040830184612107565b949350505050565b600081905092915050565b50565b60006128aa60008361288f565b91506128b58261289a565b600082019050919050565b60006128cb8261289d565b9150819050919050565b7f5472616e73666572206661696c65640000000000000000000000000000000000600082015250565b600061290b600f83612195565b9150612916826128d5565b602082019050919050565b6000602082019050818103600083015261293a816128fe565b9050919050565b7f5573657220616c72656164792065786973747300000000000000000000000000600082015250565b6000612977601383612195565b915061298282612941565b602082019050919050565b600060208201905081810360008301526129a68161296a565b9050919050565b7f557365726e616d652063616e6e6f7420626520656d7074790000000000000000600082015250565b60006129e3601883612195565b91506129ee826129ad565b602082019050919050565b60006020820190508181036000830152612a12816129d6565b9050919050565b7f4c617374206e616d652063616e6e6f7420626520656d70747900000000000000600082015250565b6000612a4f601983612195565b9150612a5a82612a19565b602082019050919050565b60006020820190508181036000830152612a7e81612a42565b9050919050565b7f456d61696c2063616e6e6f7420626520656d7074790000000000000000000000600082015250565b6000612abb601583612195565b9150612ac682612a85565b602082019050919050565b60006020820190508181036000830152612aea81612aae565b9050919050565b600082905092915050565b7f4e487b7100000000000000000000000000000000000000000000000000000000600052604160045260246000fd5b60008190508160005260206000209050919050565b60006020601f8301049050919050565b600082821b905092915050565b600060088302612b8d7fffffffffffffffffffffffffffffffffffffffffffffffffffffffffffffffff82612b50565b612b978683612b50565b95508019841693508086168417925050509392505050565b6000819050919050565b6000612bd4612bcf612bca846120fd565b612baf565b6120fd565b9050919050565b6000819050919050565b612bee83612bb9565b612c02612bfa82612bdb565b848454612b5d565b825550505050565b600090565b612c17612c0a565b612c22818484612be5565b505050565b5b81811015612c4657612c3b600082612c0f565b600181019050612c28565b5050565b601f821115612c8b57612c5c81612b2b565b612c6584612b40565b81016020851015612c74578190505b612c88612c8085612b40565b830182612c27565b50505b505050565b600082821c905092915050565b6000612cae60001984600802612c90565b1980831691505092915050565b6000612cc78383612c9d565b9150826002028217905092915050565b612ce18383612af1565b67ffffffffffffffff811115612cfa57612cf9612afc565b5b612d04825461250d565b612d0f828285612c4a565b6000601f831160018114612d3e5760008415612d2c578287013590505b612d368582612cbb565b865550612d9e565b601f198416612d4c86612b2b565b60005b82811015612d7457848901358255600182019150602085019450602081019050612d4f565b86831015612d915784890135612d8d601f891682612c9d565b8355505b6001600288020188555050505b50505050505050565b612db08261218a565b67ffffffffffffffff811115612dc957612dc8612afc565b5b612dd3825461250d565b612dde828285612c4a565b600060209050601f831160018114612e115760008415612dff578287015190505b612e098582612cbb565b865550612e71565b601f198416612e1f86612b2b565b60005b82811015612e4757848901518255600182019150602085019450602081019050612e22565b86831015612e645784890151612e60601f891682612c9d565b8355505b6001600288020188555050505b505050505050565b82818337600083830152505050565b6000612e948385612195565b9350612ea1838584612e79565b612eaa836121d0565b840190509392505050565b60006060820190508181036000830152612ed081888a612e88565b90508181036020830152612ee5818688612e88565b90508181036040830152612efa818486612e88565b9050979650505050505050565b7f4e4654206973206e6f74206c6973746564000000000000000000000000000000600082015250565b6000612f3d601183612195565b9150612f4882612f07565b602082019050919050565b60006020820190508181036000830152612f6c81612f30565b9050919050565b7f4f6e6c792073656c6c6572206f722062757965722063616e2063616e63656c2060008201527f7468652073616c65000000000000000000000000000000000000000000000000602082015250565b6000612fcf602883612195565b9150612fda82612f73565b604082019050919050565b60006020820190508181036000830152612ffe81612fc2565b9050919050565b600061302061301b61301684611ff6565b612baf565b611ff6565b9050919050565b600061303282613005565b9050919050565b600061304482613027565b9050919050565b61305481613039565b82525050565b600060608201905061306f600083018661223c565b61307c602083018561304b565b6130896040830184612107565b949350505050565b7f526566756e64206661696c656400000000000000000000000000000000000000600082015250565b60006130c7600d83612195565b91506130d282613091565b602082019050919050565b600060208201905081810360008301526130f6816130ba565b9050919050565b7f4f6e6c792073656c6c65722063616e20706572666f726d20746869732061637460008201527f696f6e0000000000000000000000000000000000000000000000000000000000602082015250565b6000613159602383612195565b9150613164826130fd565b604082019050919050565b600060208201905081810360008301526131888161314c565b9050919050565b7f4f6e6c792062757965722063616e20706572666f726d2074686973206163746960008201527f6f6e000000000000000000000000000000000000000000000000000000000000602082015250565b60006131eb602283612195565b91506131f68261318f565b604082019050919050565b6000602082019050818103600083015261321a816131de565b9050919050565b7f496e636f727265637420657363726f7720616d6f756e74000000000000000000600082015250565b6000613257601783612195565b915061326282613221565b602082019050919050565b600060208201905081810360008301526132868161324a565b905091905056fea26469706673582212204052a9ec33566b45ec57efd6ad6b723ea1e0fcbf4eef5bfe6c48a24cb2a5799564736f6c634300081c0033",
  "linkReferences": {},
  "deployedLinkReferences": {}
}